{
  "_format": "hh-sol-artifact-1",
  "contractName": "ContentMonetization",
  "sourceName": "src/backend/contracts/ContentMonetization.sol",
  "abi": [
    {
      "inputs": [],
      "stateMutability": "nonpayable",
      "type": "constructor"
    },
    {
      "anonymous": false,
      "inputs": [
        {
          "indexed": true,
          "internalType": "address",
          "name": "creator",
          "type": "address"
        },
        {
          "indexed": false,
          "internalType": "uint256",
          "name": "contentIndex",
          "type": "uint256"
        },
        {
          "indexed": true,
          "internalType": "address",
          "name": "sender",
          "type": "address"
        },
        {
          "indexed": false,
          "internalType": "uint256",
          "name": "tipAmount",
          "type": "uint256"
        }
      ],
      "name": "ContentLiked",
      "type": "event"
    },
    {
      "anonymous": false,
      "inputs": [
        {
          "indexed": true,
          "internalType": "address",
          "name": "creator",
          "type": "address"
        },
        {
          "indexed": false,
          "internalType": "uint256",
          "name": "contentIndex",
          "type": "uint256"
        },
        {
          "indexed": false,
          "internalType": "bool",
          "name": "isPaid",
          "type": "bool"
        }
      ],
      "name": "ContentPosted",
      "type": "event"
    },
    {
      "anonymous": false,
      "inputs": [
        {
          "indexed": true,
          "internalType": "address",
          "name": "creator",
          "type": "address"
        },
        {
          "indexed": false,
          "internalType": "string",
          "name": "username",
          "type": "string"
        }
      ],
      "name": "CreatorAdded",
      "type": "event"
    },
    {
      "anonymous": false,
      "inputs": [
        {
          "indexed": true,
          "internalType": "address",
          "name": "previousOwner",
          "type": "address"
        },
        {
          "indexed": true,
          "internalType": "address",
          "name": "newOwner",
          "type": "address"
        }
      ],
      "name": "OwnershipTransferred",
      "type": "event"
    },
    {
      "anonymous": false,
      "inputs": [
        {
          "indexed": true,
          "internalType": "address",
          "name": "subscriber",
          "type": "address"
        },
        {
          "indexed": true,
          "internalType": "address",
          "name": "creator",
          "type": "address"
        },
        {
          "indexed": false,
          "internalType": "uint256",
          "name": "contentIndex",
          "type": "uint256"
        }
      ],
      "name": "SubscriptionPurchased",
      "type": "event"
    },
    {
      "inputs": [
        {
          "internalType": "string",
          "name": "_username",
          "type": "string"
        },
        {
          "internalType": "string",
          "name": "_title",
          "type": "string"
        },
        {
          "internalType": "string",
          "name": "_description",
          "type": "string"
        },
        {
          "internalType": "bool",
          "name": "_isPaid",
          "type": "bool"
        }
      ],
      "name": "addContentAndCreator",
      "outputs": [],
      "stateMutability": "nonpayable",
      "type": "function"
    },
    {
      "inputs": [
        {
          "internalType": "uint256",
          "name": "",
          "type": "uint256"
        }
      ],
      "name": "creatorList",
      "outputs": [
        {
          "internalType": "address",
          "name": "",
          "type": "address"
        }
      ],
      "stateMutability": "view",
      "type": "function"
    },
    {
      "inputs": [
        {
          "internalType": "address",
          "name": "",
          "type": "address"
        }
      ],
      "name": "creators",
      "outputs": [
        {
          "internalType": "string",
          "name": "username",
          "type": "string"
        },
        {
          "internalType": "uint256",
          "name": "totalTips",
          "type": "uint256"
        }
      ],
      "stateMutability": "view",
      "type": "function"
    },
    {
      "inputs": [
        {
          "internalType": "address",
          "name": "_creator",
          "type": "address"
        }
      ],
      "name": "getCreatorContent",
      "outputs": [
        {
          "internalType": "uint256[]",
          "name": "",
          "type": "uint256[]"
        }
      ],
      "stateMutability": "view",
      "type": "function"
    },
    {
      "inputs": [
        {
          "internalType": "uint256",
          "name": "_index",
          "type": "uint256"
        }
      ],
      "name": "getPost",
      "outputs": [
        {
          "internalType": "address",
          "name": "",
          "type": "address"
        },
        {
          "internalType": "uint256",
          "name": "",
          "type": "uint256"
        },
        {
          "internalType": "string",
          "name": "",
          "type": "string"
        },
        {
          "internalType": "string",
          "name": "",
          "type": "string"
        },
        {
          "internalType": "uint256",
          "name": "",
          "type": "uint256"
        },
        {
          "internalType": "bool",
          "name": "",
          "type": "bool"
        },
        {
          "internalType": "string",
          "name": "",
          "type": "string"
        }
      ],
      "stateMutability": "view",
      "type": "function"
    },
    {
      "inputs": [],
      "name": "getPostCount",
      "outputs": [
        {
          "internalType": "uint256",
          "name": "",
          "type": "uint256"
        }
      ],
      "stateMutability": "view",
      "type": "function"
    },
    {
      "inputs": [
        {
          "internalType": "address",
          "name": "_subscriber",
          "type": "address"
        },
        {
          "internalType": "uint256",
          "name": "_contentIndex",
          "type": "uint256"
        }
      ],
      "name": "hasSubscription",
      "outputs": [
        {
          "internalType": "bool",
          "name": "",
          "type": "bool"
        }
      ],
      "stateMutability": "view",
      "type": "function"
    },
    {
      "inputs": [
        {
          "internalType": "uint256",
          "name": "_contentIndex",
          "type": "uint256"
        }
      ],
      "name": "likeContent",
      "outputs": [],
      "stateMutability": "payable",
      "type": "function"
    },
    {
      "inputs": [],
      "name": "owner",
      "outputs": [
        {
          "internalType": "address",
          "name": "",
          "type": "address"
        }
      ],
      "stateMutability": "view",
      "type": "function"
    },
    {
      "inputs": [],
      "name": "postCount",
      "outputs": [
        {
          "internalType": "uint256",
          "name": "",
          "type": "uint256"
        }
      ],
      "stateMutability": "view",
      "type": "function"
    },
    {
      "inputs": [
        {
          "internalType": "uint256",
          "name": "",
          "type": "uint256"
        }
      ],
      "name": "posts",
      "outputs": [
        {
          "internalType": "address",
          "name": "creator",
          "type": "address"
        },
        {
          "internalType": "string",
          "name": "title",
          "type": "string"
        },
        {
          "internalType": "string",
          "name": "description",
          "type": "string"
        },
        {
          "internalType": "uint256",
          "name": "likes",
          "type": "uint256"
        },
        {
          "internalType": "uint256",
          "name": "earnings",
          "type": "uint256"
        },
        {
          "internalType": "bool",
          "name": "isPaid",
          "type": "bool"
        }
      ],
      "stateMutability": "view",
      "type": "function"
    },
    {
      "inputs": [
        {
          "internalType": "address",
          "name": "_creator",
          "type": "address"
        },
        {
          "internalType": "uint256",
          "name": "_contentIndex",
          "type": "uint256"
        }
      ],
      "name": "purchaseSubscription",
      "outputs": [],
      "stateMutability": "payable",
      "type": "function"
    },
    {
      "inputs": [],
      "name": "renounceOwnership",
      "outputs": [],
      "stateMutability": "nonpayable",
      "type": "function"
    },
    {
      "inputs": [
        {
          "internalType": "address",
          "name": "",
          "type": "address"
        },
        {
          "internalType": "uint256",
          "name": "",
          "type": "uint256"
        }
      ],
      "name": "subscriptions",
      "outputs": [
        {
          "internalType": "bool",
          "name": "",
          "type": "bool"
        }
      ],
      "stateMutability": "view",
      "type": "function"
    },
    {
      "inputs": [
        {
          "internalType": "address",
          "name": "newOwner",
          "type": "address"
        }
      ],
      "name": "transferOwnership",
      "outputs": [],
      "stateMutability": "nonpayable",
      "type": "function"
    },
    {
      "inputs": [],
      "name": "withdrawEarnings",
      "outputs": [],
      "stateMutability": "nonpayable",
      "type": "function"
    }
  ],
  "bytecode": "0x608060405260006002553480156200001657600080fd5b50620000376200002b6200003d60201b60201c565b6200004560201b60201c565b62000109565b600033905090565b60008060009054906101000a900473ffffffffffffffffffffffffffffffffffffffff169050816000806101000a81548173ffffffffffffffffffffffffffffffffffffffff021916908373ffffffffffffffffffffffffffffffffffffffff1602179055508173ffffffffffffffffffffffffffffffffffffffff168173ffffffffffffffffffffffffffffffffffffffff167f8be0079c531659141344cd1fd0a4f28419497f9722a3daafe3b4186f6b6457e060405160405180910390a35050565b61291880620001196000396000f3fe6080604052600436106100f35760003560e01c80638da5cb5b1161008a578063b73c6ce911610059578063b73c6ce914610361578063bcc9540714610378578063e9456f30146103a3578063f2fde38b146103bf576100f3565b80638da5cb5b14610292578063933166e1146102bd578063aba98018146102fb578063b40b2b3e14610338576100f3565b806340731c24116100c657806340731c24146101df5780635f37cd6114610222578063623da3d11461023e578063715018a61461027b576100f3565b8063011c6756146100f85780630b1e7f8314610135578063126973621461017757806317906c2e146101b4575b600080fd5b34801561010457600080fd5b5061011f600480360381019061011a9190611b50565b6103e8565b60405161012c9190612026565b60405180910390f35b34801561014157600080fd5b5061015c60048036038101906101579190611c60565b610482565b60405161016e96959493929190611f33565b60405180910390f35b34801561018357600080fd5b5061019e60048036038101906101999190611c60565b61060b565b6040516101ab9190611f18565b60405180910390f35b3480156101c057600080fd5b506101c961064a565b6040516101d69190612235565b60405180910390f35b3480156101eb57600080fd5b5061020660048036038101906102019190611c60565b610650565b6040516102199796959493929190611fa2565b60405180910390f35b61023c60048036038101906102379190611c60565b6109ab565b005b34801561024a57600080fd5b5061026560048036038101906102609190611b79565b610d2a565b6040516102729190612048565b60405180910390f35b34801561028757600080fd5b50610290610d59565b005b34801561029e57600080fd5b506102a7610de1565b6040516102b49190611f18565b60405180910390f35b3480156102c957600080fd5b506102e460048036038101906102df9190611b50565b610e0a565b6040516102f2929190612085565b60405180910390f35b34801561030757600080fd5b50610322600480360381019061031d9190611b79565b610eb6565b60405161032f9190612048565b60405180910390f35b34801561034457600080fd5b5061035f600480360381019061035a9190611bb5565b610f1e565b005b34801561036d57600080fd5b506103766113ba565b005b34801561038457600080fd5b5061038d611559565b60405161039a9190612235565b60405180910390f35b6103bd60048036038101906103b89190611b79565b611563565b005b3480156103cb57600080fd5b506103e660048036038101906103e19190611b50565b6117f5565b005b6060600360008373ffffffffffffffffffffffffffffffffffffffff1673ffffffffffffffffffffffffffffffffffffffff16815260200190815260200160002060020180548060200260200160405190810160405280929190818152602001828054801561047657602002820191906000526020600020905b815481526020019060010190808311610462575b50505050509050919050565b6001818154811061049257600080fd5b90600052602060002090600602016000915090508060000160009054906101000a900473ffffffffffffffffffffffffffffffffffffffff16908060010180546104db906124ec565b80601f0160208091040260200160405190810160405280929190818152602001828054610507906124ec565b80156105545780601f1061052957610100808354040283529160200191610554565b820191906000526020600020905b81548152906001019060200180831161053757829003601f168201915b505050505090806002018054610569906124ec565b80601f0160208091040260200160405190810160405280929190818152602001828054610595906124ec565b80156105e25780601f106105b7576101008083540402835291602001916105e2565b820191906000526020600020905b8154815290600101906020018083116105c557829003601f168201915b5050505050908060030154908060040154908060050160009054906101000a900460ff16905086565b6005818154811061061b57600080fd5b906000526020600020016000915054906101000a900473ffffffffffffffffffffffffffffffffffffffff1681565b60025481565b6000806060806000806060600254881061069f576040517f08c379a000000000000000000000000000000000000000000000000000000000815260040161069690612115565b60405180910390fd5b6000600189815481106106db577f4e487b7100000000000000000000000000000000000000000000000000000000600052603260045260246000fd5b90600052602060002090600602016040518060c00160405290816000820160009054906101000a900473ffffffffffffffffffffffffffffffffffffffff1673ffffffffffffffffffffffffffffffffffffffff1673ffffffffffffffffffffffffffffffffffffffff16815260200160018201805461075a906124ec565b80601f0160208091040260200160405190810160405280929190818152602001828054610786906124ec565b80156107d35780601f106107a8576101008083540402835291602001916107d3565b820191906000526020600020905b8154815290600101906020018083116107b657829003601f168201915b505050505081526020016002820180546107ec906124ec565b80601f0160208091040260200160405190810160405280929190818152602001828054610818906124ec565b80156108655780601f1061083a57610100808354040283529160200191610865565b820191906000526020600020905b81548152906001019060200180831161084857829003601f168201915b5050505050815260200160038201548152602001600482015481526020016005820160009054906101000a900460ff1615151515815250509050600060036000836000015173ffffffffffffffffffffffffffffffffffffffff1673ffffffffffffffffffffffffffffffffffffffff168152602001908152602001600020905081600001518a8360200151846040015185606001518660a0015186600001808054610910906124ec565b80601f016020809104026020016040519081016040528092919081815260200182805461093c906124ec565b80156109895780601f1061095e57610100808354040283529160200191610989565b820191906000526020600020905b81548152906001019060200180831161096c57829003601f168201915b5050505050905098509850985098509850985098505050919395979092949650565b60025481106109ef576040517f08c379a00000000000000000000000000000000000000000000000000000000081526004016109e6906120d5565b60405180910390fd5b600060018281548110610a2b577f4e487b7100000000000000000000000000000000000000000000000000000000600052603260045260246000fd5b906000526020600020906006020190508060000160009054906101000a900473ffffffffffffffffffffffffffffffffffffffff1673ffffffffffffffffffffffffffffffffffffffff163373ffffffffffffffffffffffffffffffffffffffff161415610ace576040517f08c379a0000000000000000000000000000000000000000000000000000000008152600401610ac5906121d5565b60405180910390fd5b600034905060008111610b16576040517f08c379a0000000000000000000000000000000000000000000000000000000008152600401610b0d90612175565b60405180910390fd5b60006064605083610b2791906123d4565b610b3191906123a3565b905060008183610b41919061242e565b905060008460000160009054906101000a900473ffffffffffffffffffffffffffffffffffffffff1690506000610b76610de1565b90508173ffffffffffffffffffffffffffffffffffffffff166108fc859081150290604051600060405180830381858888f19350505050158015610bbe573d6000803e3d6000fd5b508073ffffffffffffffffffffffffffffffffffffffff166108fc849081150290604051600060405180830381858888f19350505050158015610c05573d6000803e3d6000fd5b506001866003016000828254610c1b919061234d565b9250508190555084866004016000828254610c36919061234d565b9250508190555083600360008473ffffffffffffffffffffffffffffffffffffffff1673ffffffffffffffffffffffffffffffffffffffff1681526020019081526020016000206001016000828254610c8f919061234d565b925050819055503373ffffffffffffffffffffffffffffffffffffffff168660000160009054906101000a900473ffffffffffffffffffffffffffffffffffffffff1673ffffffffffffffffffffffffffffffffffffffff167f69d67dbdf87b9f966413bb88050b2d69980cdfaf18cf356b02fc04a3f9e1f7b38988604051610d19929190612279565b60405180910390a350505050505050565b60046020528160005260406000206020528060005260406000206000915091509054906101000a900460ff1681565b610d616118ed565b73ffffffffffffffffffffffffffffffffffffffff16610d7f610de1565b73ffffffffffffffffffffffffffffffffffffffff1614610dd5576040517f08c379a0000000000000000000000000000000000000000000000000000000008152600401610dcc906121b5565b60405180910390fd5b610ddf60006118f5565b565b60008060009054906101000a900473ffffffffffffffffffffffffffffffffffffffff16905090565b6003602052806000526040600020600091509050806000018054610e2d906124ec565b80601f0160208091040260200160405190810160405280929190818152602001828054610e59906124ec565b8015610ea65780601f10610e7b57610100808354040283529160200191610ea6565b820191906000526020600020905b815481529060010190602001808311610e8957829003601f168201915b5050505050908060010154905082565b6000600460008473ffffffffffffffffffffffffffffffffffffffff1673ffffffffffffffffffffffffffffffffffffffff168152602001908152602001600020600083815260200190815260200160002060009054906101000a900460ff16905092915050565b6000845111610f62576040517f08c379a0000000000000000000000000000000000000000000000000000000008152600401610f59906120b5565b60405180910390fd5b6000835111610fa6576040517f08c379a0000000000000000000000000000000000000000000000000000000008152600401610f9d90612195565b60405180910390fd5b6000825111610fea576040517f08c379a0000000000000000000000000000000000000000000000000000000008152600401610fe190612135565b60405180910390fd5b604051806060016040528085815260200160008152602001600067ffffffffffffffff811115611043577f4e487b7100000000000000000000000000000000000000000000000000000000600052604160045260246000fd5b6040519080825280602002602001820160405280156110715781602001602082028036833780820191505090505b50815250600360003373ffffffffffffffffffffffffffffffffffffffff1673ffffffffffffffffffffffffffffffffffffffff16815260200190815260200160002060008201518160000190805190602001906110d09291906119b9565b506020820151816001015560408201518160020190805190602001906110f7929190611a3f565b509050506005339080600181540180825580915050600190039060005260206000200160009091909190916101000a81548173ffffffffffffffffffffffffffffffffffffffff021916908373ffffffffffffffffffffffffffffffffffffffff16021790555060006002549050600260008154809291906111789061254f565b919050555060006040518060c001604052803373ffffffffffffffffffffffffffffffffffffffff16815260200186815260200185815260200160008152602001600081526020018415158152509050600181908060018154018082558091505060019003906000526020600020906006020160009091909190915060008201518160000160006101000a81548173ffffffffffffffffffffffffffffffffffffffff021916908373ffffffffffffffffffffffffffffffffffffffff16021790555060208201518160010190805190602001906112579291906119b9565b5060408201518160020190805190602001906112749291906119b9565b50606082015181600301556080820151816004015560a08201518160050160006101000a81548160ff0219169083151502179055505050600360003373ffffffffffffffffffffffffffffffffffffffff1673ffffffffffffffffffffffffffffffffffffffff1681526020019081526020016000206002018290806001815401808255809150506001900390600052602060002001600090919091909150553373ffffffffffffffffffffffffffffffffffffffff167fdd6f97efea59a88ca2990f0c7a23e62e9ee581fa138e7835b6e8da4f0e57a4ed8760405161135a9190612063565b60405180910390a23373ffffffffffffffffffffffffffffffffffffffff167f0260f5927303ca45fbacceff1f6486f39d5f065e273459734912d991a332207383856040516113aa929190612250565b60405180910390a2505050505050565b6113c26118ed565b73ffffffffffffffffffffffffffffffffffffffff166113e0610de1565b73ffffffffffffffffffffffffffffffffffffffff1614611436576040517f08c379a000000000000000000000000000000000000000000000000000000000815260040161142d906121b5565b60405180910390fd5b6000600360003373ffffffffffffffffffffffffffffffffffffffff1673ffffffffffffffffffffffffffffffffffffffff168152602001908152602001600020600101549050600081116114c0576040517f08c379a00000000000000000000000000000000000000000000000000000000081526004016114b7906121f5565b60405180910390fd5b6000600360003373ffffffffffffffffffffffffffffffffffffffff1673ffffffffffffffffffffffffffffffffffffffff16815260200190815260200160002060010181905550611510610de1565b73ffffffffffffffffffffffffffffffffffffffff166108fc829081150290604051600060405180830381858888f19350505050158015611555573d6000803e3d6000fd5b5050565b6000600254905090565b6000600360008473ffffffffffffffffffffffffffffffffffffffff1673ffffffffffffffffffffffffffffffffffffffff16815260200190815260200160002060000180546115b2906124ec565b9050116115f4576040517f08c379a00000000000000000000000000000000000000000000000000000000081526004016115eb90612215565b60405180910390fd5b6002548110611638576040517f08c379a000000000000000000000000000000000000000000000000000000000815260040161162f906120d5565b60405180910390fd5b600060018281548110611674577f4e487b7100000000000000000000000000000000000000000000000000000000600052603260045260246000fd5b906000526020600020906006020190508060050160009054906101000a900460ff166116d5576040517f08c379a00000000000000000000000000000000000000000000000000000000081526004016116cc90612155565b60405180910390fd5b8273ffffffffffffffffffffffffffffffffffffffff166108fc655af3107a40009081150290604051600060405180830381858888f19350505050158015611721573d6000803e3d6000fd5b506001600460003373ffffffffffffffffffffffffffffffffffffffff1673ffffffffffffffffffffffffffffffffffffffff168152602001908152602001600020600084815260200190815260200160002060006101000a81548160ff0219169083151502179055508273ffffffffffffffffffffffffffffffffffffffff163373ffffffffffffffffffffffffffffffffffffffff167fbc47357bedfb069445d0f6e8f6ce0b1676fde6983eadc1e76ae54145ec901d46846040516117e89190612235565b60405180910390a3505050565b6117fd6118ed565b73ffffffffffffffffffffffffffffffffffffffff1661181b610de1565b73ffffffffffffffffffffffffffffffffffffffff1614611871576040517f08c379a0000000000000000000000000000000000000000000000000000000008152600401611868906121b5565b60405180910390fd5b600073ffffffffffffffffffffffffffffffffffffffff168173ffffffffffffffffffffffffffffffffffffffff1614156118e1576040517f08c379a00000000000000000000000000000000000000000000000000000000081526004016118d8906120f5565b60405180910390fd5b6118ea816118f5565b50565b600033905090565b60008060009054906101000a900473ffffffffffffffffffffffffffffffffffffffff169050816000806101000a81548173ffffffffffffffffffffffffffffffffffffffff021916908373ffffffffffffffffffffffffffffffffffffffff1602179055508173ffffffffffffffffffffffffffffffffffffffff168173ffffffffffffffffffffffffffffffffffffffff167f8be0079c531659141344cd1fd0a4f28419497f9722a3daafe3b4186f6b6457e060405160405180910390a35050565b8280546119c5906124ec565b90600052602060002090601f0160209004810192826119e75760008555611a2e565b82601f10611a0057805160ff1916838001178555611a2e565b82800160010185558215611a2e579182015b82811115611a2d578251825591602001919060010190611a12565b5b509050611a3b9190611a8c565b5090565b828054828255906000526020600020908101928215611a7b579160200282015b82811115611a7a578251825591602001919060010190611a5f565b5b509050611a889190611a8c565b5090565b5b80821115611aa5576000816000905550600101611a8d565b5090565b6000611abc611ab7846122c7565b6122a2565b905082815260208101848484011115611ad457600080fd5b611adf8482856124aa565b509392505050565b600081359050611af68161289d565b92915050565b600081359050611b0b816128b4565b92915050565b600082601f830112611b2257600080fd5b8135611b32848260208601611aa9565b91505092915050565b600081359050611b4a816128cb565b92915050565b600060208284031215611b6257600080fd5b6000611b7084828501611ae7565b91505092915050565b60008060408385031215611b8c57600080fd5b6000611b9a85828601611ae7565b9250506020611bab85828601611b3b565b9150509250929050565b60008060008060808587031215611bcb57600080fd5b600085013567ffffffffffffffff811115611be557600080fd5b611bf187828801611b11565b945050602085013567ffffffffffffffff811115611c0e57600080fd5b611c1a87828801611b11565b935050604085013567ffffffffffffffff811115611c3757600080fd5b611c4387828801611b11565b9250506060611c5487828801611afc565b91505092959194509250565b600060208284031215611c7257600080fd5b6000611c8084828501611b3b565b91505092915050565b6000611c958383611efa565b60208301905092915050565b611caa81612462565b82525050565b6000611cbb82612308565b611cc5818561232b565b9350611cd0836122f8565b8060005b83811015611d01578151611ce88882611c89565b9750611cf38361231e565b925050600181019050611cd4565b5085935050505092915050565b611d1781612474565b82525050565b6000611d2882612313565b611d32818561233c565b9350611d428185602086016124b9565b611d4b81612654565b840191505092915050565b6000611d6360188361233c565b9150611d6e82612665565b602082019050919050565b6000611d8660118361233c565b9150611d918261268e565b602082019050919050565b6000611da960268361233c565b9150611db4826126b7565b604082019050919050565b6000611dcc600d8361233c565b9150611dd782612706565b602082019050919050565b6000611def601b8361233c565b9150611dfa8261272f565b602082019050919050565b6000611e1260138361233c565b9150611e1d82612758565b602082019050919050565b6000611e3560128361233c565b9150611e4082612781565b602082019050919050565b6000611e5860158361233c565b9150611e63826127aa565b602082019050919050565b6000611e7b60208361233c565b9150611e86826127d3565b602082019050919050565b6000611e9e60268361233c565b9150611ea9826127fc565b604082019050919050565b6000611ec160178361233c565b9150611ecc8261284b565b602082019050919050565b6000611ee460118361233c565b9150611eef82612874565b602082019050919050565b611f03816124a0565b82525050565b611f12816124a0565b82525050565b6000602082019050611f2d6000830184611ca1565b92915050565b600060c082019050611f486000830189611ca1565b8181036020830152611f5a8188611d1d565b90508181036040830152611f6e8187611d1d565b9050611f7d6060830186611f09565b611f8a6080830185611f09565b611f9760a0830184611d0e565b979650505050505050565b600060e082019050611fb7600083018a611ca1565b611fc46020830189611f09565b8181036040830152611fd68188611d1d565b90508181036060830152611fea8187611d1d565b9050611ff96080830186611f09565b61200660a0830185611d0e565b81810360c08301526120188184611d1d565b905098975050505050505050565b600060208201905081810360008301526120408184611cb0565b905092915050565b600060208201905061205d6000830184611d0e565b92915050565b6000602082019050818103600083015261207d8184611d1d565b905092915050565b6000604082019050818103600083015261209f8185611d1d565b90506120ae6020830184611f09565b9392505050565b600060208201905081810360008301526120ce81611d56565b9050919050565b600060208201905081810360008301526120ee81611d79565b9050919050565b6000602082019050818103600083015261210e81611d9c565b9050919050565b6000602082019050818103600083015261212e81611dbf565b9050919050565b6000602082019050818103600083015261214e81611de2565b9050919050565b6000602082019050818103600083015261216e81611e05565b9050919050565b6000602082019050818103600083015261218e81611e28565b9050919050565b600060208201905081810360008301526121ae81611e4b565b9050919050565b600060208201905081810360008301526121ce81611e6e565b9050919050565b600060208201905081810360008301526121ee81611e91565b9050919050565b6000602082019050818103600083015261220e81611eb4565b9050919050565b6000602082019050818103600083015261222e81611ed7565b9050919050565b600060208201905061224a6000830184611f09565b92915050565b60006040820190506122656000830185611f09565b6122726020830184611d0e565b9392505050565b600060408201905061228e6000830185611f09565b61229b6020830184611f09565b9392505050565b60006122ac6122bd565b90506122b8828261251e565b919050565b6000604051905090565b600067ffffffffffffffff8211156122e2576122e1612625565b5b6122eb82612654565b9050602081019050919050565b6000819050602082019050919050565b600081519050919050565b600081519050919050565b6000602082019050919050565b600082825260208201905092915050565b600082825260208201905092915050565b6000612358826124a0565b9150612363836124a0565b9250827fffffffffffffffffffffffffffffffffffffffffffffffffffffffffffffffff0382111561239857612397612598565b5b828201905092915050565b60006123ae826124a0565b91506123b9836124a0565b9250826123c9576123c86125c7565b5b828204905092915050565b60006123df826124a0565b91506123ea836124a0565b9250817fffffffffffffffffffffffffffffffffffffffffffffffffffffffffffffffff048311821515161561242357612422612598565b5b828202905092915050565b6000612439826124a0565b9150612444836124a0565b92508282101561245757612456612598565b5b828203905092915050565b600061246d82612480565b9050919050565b60008115159050919050565b600073ffffffffffffffffffffffffffffffffffffffff82169050919050565b6000819050919050565b82818337600083830152505050565b60005b838110156124d75780820151818401526020810190506124bc565b838111156124e6576000848401525b50505050565b6000600282049050600182168061250457607f821691505b60208210811415612518576125176125f6565b5b50919050565b61252782612654565b810181811067ffffffffffffffff8211171561254657612545612625565b5b80604052505050565b600061255a826124a0565b91507fffffffffffffffffffffffffffffffffffffffffffffffffffffffffffffffff82141561258d5761258c612598565b5b600182019050919050565b7f4e487b7100000000000000000000000000000000000000000000000000000000600052601160045260246000fd5b7f4e487b7100000000000000000000000000000000000000000000000000000000600052601260045260246000fd5b7f4e487b7100000000000000000000000000000000000000000000000000000000600052602260045260246000fd5b7f4e487b7100000000000000000000000000000000000000000000000000000000600052604160045260246000fd5b6000601f19601f8301169050919050565b7f557365726e616d652063616e6e6f7420626520656d7074790000000000000000600082015250565b7f436f6e74656e74206e6f7420666f756e64000000000000000000000000000000600082015250565b7f4f776e61626c653a206e6577206f776e657220697320746865207a65726f206160008201527f6464726573730000000000000000000000000000000000000000000000000000602082015250565b7f496e76616c696420696e64657800000000000000000000000000000000000000600082015250565b7f4465736372697074696f6e2063616e6e6f7420626520656d7074790000000000600082015250565b7f436f6e74656e74206973206e6f74207061696400000000000000000000000000600082015250565b7f496e76616c69642074697020616d6f756e740000000000000000000000000000600082015250565b7f5469746c652063616e6e6f7420626520656d7074790000000000000000000000600082015250565b7f4f776e61626c653a2063616c6c6572206973206e6f7420746865206f776e6572600082015250565b7f43726561746f72732063616e6e6f74206c696b65207468656972206f776e206360008201527f6f6e74656e740000000000000000000000000000000000000000000000000000602082015250565b7f4e6f206561726e696e677320746f207769746864726177000000000000000000600082015250565b7f43726561746f72206e6f7420666f756e64000000000000000000000000000000600082015250565b6128a681612462565b81146128b157600080fd5b50565b6128bd81612474565b81146128c857600080fd5b50565b6128d4816124a0565b81146128df57600080fd5b5056fea2646970667358221220015ed3966e7e8903090ac21d19d6fe5aa4de548063cea2daaef0bae96291930d64736f6c63430008040033",
  "linkReferences": {},
  "deployedLinkReferences": {}
}