{
  "_format": "hh-sol-artifact-1",
  "contractName": "ContentMonetization",
  "sourceName": "src/backend/contracts/ContentMonetization.sol",
  "abi": [
    {
      "inputs": [],
      "stateMutability": "nonpayable",
      "type": "constructor"
    },
    {
      "anonymous": false,
      "inputs": [
        {
          "indexed": true,
          "internalType": "address",
          "name": "creator",
          "type": "address"
        },
        {
          "indexed": false,
          "internalType": "uint256",
          "name": "contentIndex",
          "type": "uint256"
        },
        {
          "indexed": true,
          "internalType": "address",
          "name": "sender",
          "type": "address"
        },
        {
          "indexed": false,
          "internalType": "uint256",
          "name": "tipAmount",
          "type": "uint256"
        }
      ],
      "name": "ContentLiked",
      "type": "event"
    },
    {
      "anonymous": false,
      "inputs": [
        {
          "indexed": true,
          "internalType": "address",
          "name": "creator",
          "type": "address"
        },
        {
          "indexed": false,
          "internalType": "uint256",
          "name": "contentIndex",
          "type": "uint256"
        },
        {
          "indexed": false,
          "internalType": "bool",
          "name": "isPaid",
          "type": "bool"
        }
      ],
      "name": "ContentPosted",
      "type": "event"
    },
    {
      "anonymous": false,
      "inputs": [
        {
          "indexed": true,
          "internalType": "address",
          "name": "creator",
          "type": "address"
        },
        {
          "indexed": false,
          "internalType": "string",
          "name": "username",
          "type": "string"
        }
      ],
      "name": "CreatorAdded",
      "type": "event"
    },
    {
      "anonymous": false,
      "inputs": [
        {
          "indexed": true,
          "internalType": "address",
          "name": "previousOwner",
          "type": "address"
        },
        {
          "indexed": true,
          "internalType": "address",
          "name": "newOwner",
          "type": "address"
        }
      ],
      "name": "OwnershipTransferred",
      "type": "event"
    },
    {
      "anonymous": false,
      "inputs": [
        {
          "indexed": true,
          "internalType": "address",
          "name": "subscriber",
          "type": "address"
        },
        {
          "indexed": true,
          "internalType": "address",
          "name": "creator",
          "type": "address"
        },
        {
          "indexed": false,
          "internalType": "uint256",
          "name": "contentIndex",
          "type": "uint256"
        }
      ],
      "name": "SubscriptionPurchased",
      "type": "event"
    },
    {
      "inputs": [
        {
          "internalType": "string",
          "name": "_username",
          "type": "string"
        },
        {
          "internalType": "string",
          "name": "_title",
          "type": "string"
        },
        {
          "internalType": "string",
          "name": "_description",
          "type": "string"
        },
        {
          "internalType": "bool",
          "name": "_isPaid",
          "type": "bool"
        }
      ],
      "name": "addContentAndCreator",
      "outputs": [],
      "stateMutability": "nonpayable",
      "type": "function"
    },
    {
      "inputs": [
        {
          "internalType": "uint256",
          "name": "",
          "type": "uint256"
        }
      ],
      "name": "creatorList",
      "outputs": [
        {
          "internalType": "address",
          "name": "",
          "type": "address"
        }
      ],
      "stateMutability": "view",
      "type": "function"
    },
    {
      "inputs": [
        {
          "internalType": "address",
          "name": "",
          "type": "address"
        }
      ],
      "name": "creators",
      "outputs": [
        {
          "internalType": "string",
          "name": "username",
          "type": "string"
        },
        {
          "internalType": "uint256",
          "name": "totalTips",
          "type": "uint256"
        }
      ],
      "stateMutability": "view",
      "type": "function"
    },
    {
      "inputs": [
        {
          "internalType": "address",
          "name": "_creator",
          "type": "address"
        }
      ],
      "name": "getCreatorContent",
      "outputs": [
        {
          "internalType": "uint256[]",
          "name": "",
          "type": "uint256[]"
        }
      ],
      "stateMutability": "view",
      "type": "function"
    },
    {
      "inputs": [
        {
          "internalType": "uint256",
          "name": "_index",
          "type": "uint256"
        }
      ],
      "name": "getPost",
      "outputs": [
        {
          "internalType": "address",
          "name": "",
          "type": "address"
        },
        {
          "internalType": "uint256",
          "name": "",
          "type": "uint256"
        },
        {
          "internalType": "string",
          "name": "",
          "type": "string"
        },
        {
          "internalType": "string",
          "name": "",
          "type": "string"
        },
        {
          "internalType": "uint256",
          "name": "",
          "type": "uint256"
        },
        {
          "internalType": "bool",
          "name": "",
          "type": "bool"
        },
        {
          "internalType": "string",
          "name": "",
          "type": "string"
        }
      ],
      "stateMutability": "view",
      "type": "function"
    },
    {
      "inputs": [],
      "name": "getPostCount",
      "outputs": [
        {
          "internalType": "uint256",
          "name": "",
          "type": "uint256"
        }
      ],
      "stateMutability": "view",
      "type": "function"
    },
    {
      "inputs": [
        {
          "internalType": "address",
          "name": "_subscriber",
          "type": "address"
        },
        {
          "internalType": "uint256",
          "name": "_contentIndex",
          "type": "uint256"
        }
      ],
      "name": "hasSubscription",
      "outputs": [
        {
          "internalType": "bool",
          "name": "",
          "type": "bool"
        }
      ],
      "stateMutability": "view",
      "type": "function"
    },
    {
      "inputs": [
        {
          "internalType": "uint256",
          "name": "_contentIndex",
          "type": "uint256"
        }
      ],
      "name": "likeContent",
      "outputs": [],
      "stateMutability": "payable",
      "type": "function"
    },
    {
      "inputs": [],
      "name": "owner",
      "outputs": [
        {
          "internalType": "address",
          "name": "",
          "type": "address"
        }
      ],
      "stateMutability": "view",
      "type": "function"
    },
    {
      "inputs": [],
      "name": "postCount",
      "outputs": [
        {
          "internalType": "uint256",
          "name": "",
          "type": "uint256"
        }
      ],
      "stateMutability": "view",
      "type": "function"
    },
    {
      "inputs": [
        {
          "internalType": "uint256",
          "name": "",
          "type": "uint256"
        }
      ],
      "name": "posts",
      "outputs": [
        {
          "internalType": "address",
          "name": "creator",
          "type": "address"
        },
        {
          "internalType": "string",
          "name": "title",
          "type": "string"
        },
        {
          "internalType": "string",
          "name": "description",
          "type": "string"
        },
        {
          "internalType": "uint256",
          "name": "likes",
          "type": "uint256"
        },
        {
          "internalType": "uint256",
          "name": "earnings",
          "type": "uint256"
        },
        {
          "internalType": "bool",
          "name": "isPaid",
          "type": "bool"
        }
      ],
      "stateMutability": "view",
      "type": "function"
    },
    {
      "inputs": [
        {
          "internalType": "address",
          "name": "_creator",
          "type": "address"
        },
        {
          "internalType": "uint256",
          "name": "_contentIndex",
          "type": "uint256"
        }
      ],
      "name": "purchaseSubscription",
      "outputs": [],
      "stateMutability": "payable",
      "type": "function"
    },
    {
      "inputs": [],
      "name": "renounceOwnership",
      "outputs": [],
      "stateMutability": "nonpayable",
      "type": "function"
    },
    {
      "inputs": [
        {
          "internalType": "address",
          "name": "",
          "type": "address"
        },
        {
          "internalType": "uint256",
          "name": "",
          "type": "uint256"
        }
      ],
      "name": "subscriptions",
      "outputs": [
        {
          "internalType": "bool",
          "name": "",
          "type": "bool"
        }
      ],
      "stateMutability": "view",
      "type": "function"
    },
    {
      "inputs": [
        {
          "internalType": "address",
          "name": "newOwner",
          "type": "address"
        }
      ],
      "name": "transferOwnership",
      "outputs": [],
      "stateMutability": "nonpayable",
      "type": "function"
    },
    {
      "inputs": [],
      "name": "withdrawEarnings",
      "outputs": [],
      "stateMutability": "nonpayable",
      "type": "function"
    }
  ],
  "bytecode": "0x608060405260006002553480156200001657600080fd5b50620000376200002b6200003d60201b60201c565b6200004560201b60201c565b62000109565b600033905090565b60008060009054906101000a900473ffffffffffffffffffffffffffffffffffffffff169050816000806101000a81548173ffffffffffffffffffffffffffffffffffffffff021916908373ffffffffffffffffffffffffffffffffffffffff1602179055508173ffffffffffffffffffffffffffffffffffffffff168173ffffffffffffffffffffffffffffffffffffffff167f8be0079c531659141344cd1fd0a4f28419497f9722a3daafe3b4186f6b6457e060405160405180910390a35050565b6129b080620001196000396000f3fe6080604052600436106100f35760003560e01c80638da5cb5b1161008a578063b73c6ce911610059578063b73c6ce914610361578063bcc9540714610378578063e9456f30146103a3578063f2fde38b146103bf576100f3565b80638da5cb5b14610292578063933166e1146102bd578063aba98018146102fb578063b40b2b3e14610338576100f3565b806340731c24116100c657806340731c24146101df5780635f37cd6114610222578063623da3d11461023e578063715018a61461027b576100f3565b8063011c6756146100f85780630b1e7f8314610135578063126973621461017757806317906c2e146101b4575b600080fd5b34801561010457600080fd5b5061011f600480360381019061011a9190611bfe565b6103e8565b60405161012c919061211a565b60405180910390f35b34801561014157600080fd5b5061015c60048036038101906101579190611d0e565b610482565b60405161016e96959493929190612027565b60405180910390f35b34801561018357600080fd5b5061019e60048036038101906101999190611d0e565b61060b565b6040516101ab919061200c565b60405180910390f35b3480156101c057600080fd5b506101c961064a565b6040516101d69190612369565b60405180910390f35b3480156101eb57600080fd5b5061020660048036038101906102019190611d0e565b610650565b6040516102199796959493929190612096565b60405180910390f35b61023c60048036038101906102379190611d0e565b6109ab565b005b34801561024a57600080fd5b5061026560048036038101906102609190611c27565b610ca7565b604051610272919061213c565b60405180910390f35b34801561028757600080fd5b50610290610cd6565b005b34801561029e57600080fd5b506102a7610d5e565b6040516102b4919061200c565b60405180910390f35b3480156102c957600080fd5b506102e460048036038101906102df9190611bfe565b610d87565b6040516102f2929190612179565b60405180910390f35b34801561030757600080fd5b50610322600480360381019061031d9190611c27565b610e33565b60405161032f919061213c565b60405180910390f35b34801561034457600080fd5b5061035f600480360381019061035a9190611c63565b610e9b565b005b34801561036d57600080fd5b506103766113c8565b005b34801561038457600080fd5b5061038d611567565b60405161039a9190612369565b60405180910390f35b6103bd60048036038101906103b89190611c27565b611571565b005b3480156103cb57600080fd5b506103e660048036038101906103e19190611bfe565b6118a3565b005b6060600360008373ffffffffffffffffffffffffffffffffffffffff1673ffffffffffffffffffffffffffffffffffffffff16815260200190815260200160002060020180548060200260200160405190810160405280929190818152602001828054801561047657602002820191906000526020600020905b815481526020019060010190808311610462575b50505050509050919050565b6001818154811061049257600080fd5b90600052602060002090600602016000915090508060000160009054906101000a900473ffffffffffffffffffffffffffffffffffffffff16908060010180546104db90612561565b80601f016020809104026020016040519081016040528092919081815260200182805461050790612561565b80156105545780601f1061052957610100808354040283529160200191610554565b820191906000526020600020905b81548152906001019060200180831161053757829003601f168201915b50505050509080600201805461056990612561565b80601f016020809104026020016040519081016040528092919081815260200182805461059590612561565b80156105e25780601f106105b7576101008083540402835291602001916105e2565b820191906000526020600020905b8154815290600101906020018083116105c557829003601f168201915b5050505050908060030154908060040154908060050160009054906101000a900460ff16905086565b6005818154811061061b57600080fd5b906000526020600020016000915054906101000a900473ffffffffffffffffffffffffffffffffffffffff1681565b60025481565b6000806060806000806060600254881061069f576040517f08c379a000000000000000000000000000000000000000000000000000000000815260040161069690612209565b60405180910390fd5b6000600189815481106106db577f4e487b7100000000000000000000000000000000000000000000000000000000600052603260045260246000fd5b90600052602060002090600602016040518060c00160405290816000820160009054906101000a900473ffffffffffffffffffffffffffffffffffffffff1673ffffffffffffffffffffffffffffffffffffffff1673ffffffffffffffffffffffffffffffffffffffff16815260200160018201805461075a90612561565b80601f016020809104026020016040519081016040528092919081815260200182805461078690612561565b80156107d35780601f106107a8576101008083540402835291602001916107d3565b820191906000526020600020905b8154815290600101906020018083116107b657829003601f168201915b505050505081526020016002820180546107ec90612561565b80601f016020809104026020016040519081016040528092919081815260200182805461081890612561565b80156108655780601f1061083a57610100808354040283529160200191610865565b820191906000526020600020905b81548152906001019060200180831161084857829003601f168201915b5050505050815260200160038201548152602001600482015481526020016005820160009054906101000a900460ff1615151515815250509050600060036000836000015173ffffffffffffffffffffffffffffffffffffffff1673ffffffffffffffffffffffffffffffffffffffff168152602001908152602001600020905081600001518a8360200151846040015185606001518660a001518660000180805461091090612561565b80601f016020809104026020016040519081016040528092919081815260200182805461093c90612561565b80156109895780601f1061095e57610100808354040283529160200191610989565b820191906000526020600020905b81548152906001019060200180831161096c57829003601f168201915b5050505050905098509850985098509850985098505050919395979092949650565b60025481106109ef576040517f08c379a00000000000000000000000000000000000000000000000000000000081526004016109e6906121c9565b60405180910390fd5b600060018281548110610a2b577f4e487b7100000000000000000000000000000000000000000000000000000000600052603260045260246000fd5b906000526020600020906006020190508060000160009054906101000a900473ffffffffffffffffffffffffffffffffffffffff1673ffffffffffffffffffffffffffffffffffffffff163373ffffffffffffffffffffffffffffffffffffffff161415610ace576040517f08c379a0000000000000000000000000000000000000000000000000000000008152600401610ac5906122e9565b60405180910390fd5b600034905060008111610b16576040517f08c379a0000000000000000000000000000000000000000000000000000000008152600401610b0d90612269565b60405180910390fd5b6001826003016000828254610b2b9190612481565b9250508190555060008260000160009054906101000a900473ffffffffffffffffffffffffffffffffffffffff1690508073ffffffffffffffffffffffffffffffffffffffff166108fc839081150290604051600060405180830381858888f19350505050158015610ba1573d6000803e3d6000fd5b5081836004016000828254610bb69190612481565b9250508190555081600360008373ffffffffffffffffffffffffffffffffffffffff1673ffffffffffffffffffffffffffffffffffffffff1681526020019081526020016000206001016000828254610c0f9190612481565b925050819055503373ffffffffffffffffffffffffffffffffffffffff168360000160009054906101000a900473ffffffffffffffffffffffffffffffffffffffff1673ffffffffffffffffffffffffffffffffffffffff167f69d67dbdf87b9f966413bb88050b2d69980cdfaf18cf356b02fc04a3f9e1f7b38685604051610c999291906123ad565b60405180910390a350505050565b60046020528160005260406000206020528060005260406000206000915091509054906101000a900460ff1681565b610cde61199b565b73ffffffffffffffffffffffffffffffffffffffff16610cfc610d5e565b73ffffffffffffffffffffffffffffffffffffffff1614610d52576040517f08c379a0000000000000000000000000000000000000000000000000000000008152600401610d49906122c9565b60405180910390fd5b610d5c60006119a3565b565b60008060009054906101000a900473ffffffffffffffffffffffffffffffffffffffff16905090565b6003602052806000526040600020600091509050806000018054610daa90612561565b80601f0160208091040260200160405190810160405280929190818152602001828054610dd690612561565b8015610e235780601f10610df857610100808354040283529160200191610e23565b820191906000526020600020905b815481529060010190602001808311610e0657829003601f168201915b5050505050908060010154905082565b6000600460008473ffffffffffffffffffffffffffffffffffffffff1673ffffffffffffffffffffffffffffffffffffffff168152602001908152602001600020600083815260200190815260200160002060009054906101000a900460ff16905092915050565b6000845111610edf576040517f08c379a0000000000000000000000000000000000000000000000000000000008152600401610ed6906121a9565b60405180910390fd5b6000835111610f23576040517f08c379a0000000000000000000000000000000000000000000000000000000008152600401610f1a90612289565b60405180910390fd5b6000825111610f67576040517f08c379a0000000000000000000000000000000000000000000000000000000008152600401610f5e90612229565b60405180910390fd5b6000600360003373ffffffffffffffffffffffffffffffffffffffff1673ffffffffffffffffffffffffffffffffffffffff1681526020019081526020016000206000018054610fb690612561565b905014610ff8576040517f08c379a0000000000000000000000000000000000000000000000000000000008152600401610fef90612309565b60405180910390fd5b604051806060016040528085815260200160008152602001600067ffffffffffffffff811115611051577f4e487b7100000000000000000000000000000000000000000000000000000000600052604160045260246000fd5b60405190808252806020026020018201604052801561107f5781602001602082028036833780820191505090505b50815250600360003373ffffffffffffffffffffffffffffffffffffffff1673ffffffffffffffffffffffffffffffffffffffff16815260200190815260200160002060008201518160000190805190602001906110de929190611a67565b50602082015181600101556040820151816002019080519060200190611105929190611aed565b509050506005339080600181540180825580915050600190039060005260206000200160009091909190916101000a81548173ffffffffffffffffffffffffffffffffffffffff021916908373ffffffffffffffffffffffffffffffffffffffff1602179055506000600254905060026000815480929190611186906125c4565b919050555060006040518060c001604052803373ffffffffffffffffffffffffffffffffffffffff16815260200186815260200185815260200160008152602001600081526020018415158152509050600181908060018154018082558091505060019003906000526020600020906006020160009091909190915060008201518160000160006101000a81548173ffffffffffffffffffffffffffffffffffffffff021916908373ffffffffffffffffffffffffffffffffffffffff1602179055506020820151816001019080519060200190611265929190611a67565b506040820151816002019080519060200190611282929190611a67565b50606082015181600301556080820151816004015560a08201518160050160006101000a81548160ff0219169083151502179055505050600360003373ffffffffffffffffffffffffffffffffffffffff1673ffffffffffffffffffffffffffffffffffffffff1681526020019081526020016000206002018290806001815401808255809150506001900390600052602060002001600090919091909150553373ffffffffffffffffffffffffffffffffffffffff167fdd6f97efea59a88ca2990f0c7a23e62e9ee581fa138e7835b6e8da4f0e57a4ed876040516113689190612157565b60405180910390a23373ffffffffffffffffffffffffffffffffffffffff167f0260f5927303ca45fbacceff1f6486f39d5f065e273459734912d991a332207383856040516113b8929190612384565b60405180910390a2505050505050565b6113d061199b565b73ffffffffffffffffffffffffffffffffffffffff166113ee610d5e565b73ffffffffffffffffffffffffffffffffffffffff1614611444576040517f08c379a000000000000000000000000000000000000000000000000000000000815260040161143b906122c9565b60405180910390fd5b6000600360003373ffffffffffffffffffffffffffffffffffffffff1673ffffffffffffffffffffffffffffffffffffffff168152602001908152602001600020600101549050600081116114ce576040517f08c379a00000000000000000000000000000000000000000000000000000000081526004016114c590612329565b60405180910390fd5b6000600360003373ffffffffffffffffffffffffffffffffffffffff1673ffffffffffffffffffffffffffffffffffffffff1681526020019081526020016000206001018190555061151e610d5e565b73ffffffffffffffffffffffffffffffffffffffff166108fc829081150290604051600060405180830381858888f19350505050158015611563573d6000803e3d6000fd5b5050565b6000600254905090565b6000600360008473ffffffffffffffffffffffffffffffffffffffff1673ffffffffffffffffffffffffffffffffffffffff16815260200190815260200160002060000180546115c090612561565b905011611602576040517f08c379a00000000000000000000000000000000000000000000000000000000081526004016115f990612349565b60405180910390fd5b6002548110611646576040517f08c379a000000000000000000000000000000000000000000000000000000000815260040161163d906121c9565b60405180910390fd5b600060018281548110611682577f4e487b7100000000000000000000000000000000000000000000000000000000600052603260045260246000fd5b906000526020600020906006020190508060050160009054906101000a900460ff166116e3576040517f08c379a00000000000000000000000000000000000000000000000000000000081526004016116da90612249565b60405180910390fd5b600460003373ffffffffffffffffffffffffffffffffffffffff1673ffffffffffffffffffffffffffffffffffffffff168152602001908152602001600020600083815260200190815260200160002060009054906101000a900460ff1615611781576040517f08c379a0000000000000000000000000000000000000000000000000000000008152600401611778906122a9565b60405180910390fd5b8273ffffffffffffffffffffffffffffffffffffffff166108fc670de0b6b3a76400009081150290604051600060405180830381858888f193505050501580156117cf573d6000803e3d6000fd5b506001600460003373ffffffffffffffffffffffffffffffffffffffff1673ffffffffffffffffffffffffffffffffffffffff168152602001908152602001600020600084815260200190815260200160002060006101000a81548160ff0219169083151502179055508273ffffffffffffffffffffffffffffffffffffffff163373ffffffffffffffffffffffffffffffffffffffff167fbc47357bedfb069445d0f6e8f6ce0b1676fde6983eadc1e76ae54145ec901d46846040516118969190612369565b60405180910390a3505050565b6118ab61199b565b73ffffffffffffffffffffffffffffffffffffffff166118c9610d5e565b73ffffffffffffffffffffffffffffffffffffffff161461191f576040517f08c379a0000000000000000000000000000000000000000000000000000000008152600401611916906122c9565b60405180910390fd5b600073ffffffffffffffffffffffffffffffffffffffff168173ffffffffffffffffffffffffffffffffffffffff16141561198f576040517f08c379a0000000000000000000000000000000000000000000000000000000008152600401611986906121e9565b60405180910390fd5b611998816119a3565b50565b600033905090565b60008060009054906101000a900473ffffffffffffffffffffffffffffffffffffffff169050816000806101000a81548173ffffffffffffffffffffffffffffffffffffffff021916908373ffffffffffffffffffffffffffffffffffffffff1602179055508173ffffffffffffffffffffffffffffffffffffffff168173ffffffffffffffffffffffffffffffffffffffff167f8be0079c531659141344cd1fd0a4f28419497f9722a3daafe3b4186f6b6457e060405160405180910390a35050565b828054611a7390612561565b90600052602060002090601f016020900481019282611a955760008555611adc565b82601f10611aae57805160ff1916838001178555611adc565b82800160010185558215611adc579182015b82811115611adb578251825591602001919060010190611ac0565b5b509050611ae99190611b3a565b5090565b828054828255906000526020600020908101928215611b29579160200282015b82811115611b28578251825591602001919060010190611b0d565b5b509050611b369190611b3a565b5090565b5b80821115611b53576000816000905550600101611b3b565b5090565b6000611b6a611b65846123fb565b6123d6565b905082815260208101848484011115611b8257600080fd5b611b8d84828561251f565b509392505050565b600081359050611ba481612935565b92915050565b600081359050611bb98161294c565b92915050565b600082601f830112611bd057600080fd5b8135611be0848260208601611b57565b91505092915050565b600081359050611bf881612963565b92915050565b600060208284031215611c1057600080fd5b6000611c1e84828501611b95565b91505092915050565b60008060408385031215611c3a57600080fd5b6000611c4885828601611b95565b9250506020611c5985828601611be9565b9150509250929050565b60008060008060808587031215611c7957600080fd5b600085013567ffffffffffffffff811115611c9357600080fd5b611c9f87828801611bbf565b945050602085013567ffffffffffffffff811115611cbc57600080fd5b611cc887828801611bbf565b935050604085013567ffffffffffffffff811115611ce557600080fd5b611cf187828801611bbf565b9250506060611d0287828801611baa565b91505092959194509250565b600060208284031215611d2057600080fd5b6000611d2e84828501611be9565b91505092915050565b6000611d438383611fee565b60208301905092915050565b611d58816124d7565b82525050565b6000611d698261243c565b611d73818561245f565b9350611d7e8361242c565b8060005b83811015611daf578151611d968882611d37565b9750611da183612452565b925050600181019050611d82565b5085935050505092915050565b611dc5816124e9565b82525050565b6000611dd682612447565b611de08185612470565b9350611df081856020860161252e565b611df98161269a565b840191505092915050565b6000611e11601883612470565b9150611e1c826126ab565b602082019050919050565b6000611e34601183612470565b9150611e3f826126d4565b602082019050919050565b6000611e57602683612470565b9150611e62826126fd565b604082019050919050565b6000611e7a600d83612470565b9150611e858261274c565b602082019050919050565b6000611e9d601b83612470565b9150611ea882612775565b602082019050919050565b6000611ec0601383612470565b9150611ecb8261279e565b602082019050919050565b6000611ee3601283612470565b9150611eee826127c7565b602082019050919050565b6000611f06601583612470565b9150611f11826127f0565b602082019050919050565b6000611f29601e83612470565b9150611f3482612819565b602082019050919050565b6000611f4c602083612470565b9150611f5782612842565b602082019050919050565b6000611f6f602683612470565b9150611f7a8261286b565b604082019050919050565b6000611f92601583612470565b9150611f9d826128ba565b602082019050919050565b6000611fb5601783612470565b9150611fc0826128e3565b602082019050919050565b6000611fd8601183612470565b9150611fe38261290c565b602082019050919050565b611ff781612515565b82525050565b61200681612515565b82525050565b60006020820190506120216000830184611d4f565b92915050565b600060c08201905061203c6000830189611d4f565b818103602083015261204e8188611dcb565b905081810360408301526120628187611dcb565b90506120716060830186611ffd565b61207e6080830185611ffd565b61208b60a0830184611dbc565b979650505050505050565b600060e0820190506120ab600083018a611d4f565b6120b86020830189611ffd565b81810360408301526120ca8188611dcb565b905081810360608301526120de8187611dcb565b90506120ed6080830186611ffd565b6120fa60a0830185611dbc565b81810360c083015261210c8184611dcb565b905098975050505050505050565b600060208201905081810360008301526121348184611d5e565b905092915050565b60006020820190506121516000830184611dbc565b92915050565b600060208201905081810360008301526121718184611dcb565b905092915050565b600060408201905081810360008301526121938185611dcb565b90506121a26020830184611ffd565b9392505050565b600060208201905081810360008301526121c281611e04565b9050919050565b600060208201905081810360008301526121e281611e27565b9050919050565b6000602082019050818103600083015261220281611e4a565b9050919050565b6000602082019050818103600083015261222281611e6d565b9050919050565b6000602082019050818103600083015261224281611e90565b9050919050565b6000602082019050818103600083015261226281611eb3565b9050919050565b6000602082019050818103600083015261228281611ed6565b9050919050565b600060208201905081810360008301526122a281611ef9565b9050919050565b600060208201905081810360008301526122c281611f1c565b9050919050565b600060208201905081810360008301526122e281611f3f565b9050919050565b6000602082019050818103600083015261230281611f62565b9050919050565b6000602082019050818103600083015261232281611f85565b9050919050565b6000602082019050818103600083015261234281611fa8565b9050919050565b6000602082019050818103600083015261236281611fcb565b9050919050565b600060208201905061237e6000830184611ffd565b92915050565b60006040820190506123996000830185611ffd565b6123a66020830184611dbc565b9392505050565b60006040820190506123c26000830185611ffd565b6123cf6020830184611ffd565b9392505050565b60006123e06123f1565b90506123ec8282612593565b919050565b6000604051905090565b600067ffffffffffffffff8211156124165761241561266b565b5b61241f8261269a565b9050602081019050919050565b6000819050602082019050919050565b600081519050919050565b600081519050919050565b6000602082019050919050565b600082825260208201905092915050565b600082825260208201905092915050565b600061248c82612515565b915061249783612515565b9250827fffffffffffffffffffffffffffffffffffffffffffffffffffffffffffffffff038211156124cc576124cb61260d565b5b828201905092915050565b60006124e2826124f5565b9050919050565b60008115159050919050565b600073ffffffffffffffffffffffffffffffffffffffff82169050919050565b6000819050919050565b82818337600083830152505050565b60005b8381101561254c578082015181840152602081019050612531565b8381111561255b576000848401525b50505050565b6000600282049050600182168061257957607f821691505b6020821081141561258d5761258c61263c565b5b50919050565b61259c8261269a565b810181811067ffffffffffffffff821117156125bb576125ba61266b565b5b80604052505050565b60006125cf82612515565b91507fffffffffffffffffffffffffffffffffffffffffffffffffffffffffffffffff8214156126025761260161260d565b5b600182019050919050565b7f4e487b7100000000000000000000000000000000000000000000000000000000600052601160045260246000fd5b7f4e487b7100000000000000000000000000000000000000000000000000000000600052602260045260246000fd5b7f4e487b7100000000000000000000000000000000000000000000000000000000600052604160045260246000fd5b6000601f19601f8301169050919050565b7f557365726e616d652063616e6e6f7420626520656d7074790000000000000000600082015250565b7f436f6e74656e74206e6f7420666f756e64000000000000000000000000000000600082015250565b7f4f776e61626c653a206e6577206f776e657220697320746865207a65726f206160008201527f6464726573730000000000000000000000000000000000000000000000000000602082015250565b7f496e76616c696420696e64657800000000000000000000000000000000000000600082015250565b7f4465736372697074696f6e2063616e6e6f7420626520656d7074790000000000600082015250565b7f436f6e74656e74206973206e6f74207061696400000000000000000000000000600082015250565b7f496e76616c69642074697020616d6f756e740000000000000000000000000000600082015250565b7f5469746c652063616e6e6f7420626520656d7074790000000000000000000000600082015250565b7f537562736372697074696f6e20616c7265616479207075726368617365640000600082015250565b7f4f776e61626c653a2063616c6c6572206973206e6f7420746865206f776e6572600082015250565b7f43726561746f72732063616e6e6f74206c696b65207468656972206f776e206360008201527f6f6e74656e740000000000000000000000000000000000000000000000000000602082015250565b7f43726561746f7220616c72656164792061646465640000000000000000000000600082015250565b7f4e6f206561726e696e677320746f207769746864726177000000000000000000600082015250565b7f43726561746f72206e6f7420666f756e64000000000000000000000000000000600082015250565b61293e816124d7565b811461294957600080fd5b50565b612955816124e9565b811461296057600080fd5b50565b61296c81612515565b811461297757600080fd5b5056fea2646970667358221220063104b23fb2b92acb771f4875cbd546add5d2dee8a9c0e06082b0561fe9c06364736f6c63430008040033",
  "linkReferences": {},
  "deployedLinkReferences": {}
}